{
  "_format": "hh-sol-artifact-1",
  "contractName": "DomeraEscrow",
  "sourceName": "contracts/DomeraEscrow.sol",
  "abi": [
    {
      "inputs": [
        {
          "internalType": "contract IArbitrator",
          "name": "_arbitrator",
          "type": "address"
        },
        {
          "internalType": "bytes",
          "name": "_arbitratorExtraData",
          "type": "bytes"
        }
      ],
      "stateMutability": "nonpayable",
      "type": "constructor"
    },
    {
      "inputs": [
        {
          "internalType": "address",
          "name": "owner",
          "type": "address"
        }
      ],
      "name": "OwnableInvalidOwner",
      "type": "error"
    },
    {
      "inputs": [
        {
          "internalType": "address",
          "name": "account",
          "type": "address"
        }
      ],
      "name": "OwnableUnauthorizedAccount",
      "type": "error"
    },
    {
      "inputs": [],
      "name": "ReentrancyGuardReentrantCall",
      "type": "error"
    },
    {
      "anonymous": false,
      "inputs": [
        {
          "indexed": true,
          "internalType": "uint256",
          "name": "escrowID",
          "type": "uint256"
        },
        {
          "indexed": true,
          "internalType": "uint256",
          "name": "disputeID",
          "type": "uint256"
        }
      ],
      "name": "DisputeCreated",
      "type": "event"
    },
    {
      "anonymous": false,
      "inputs": [
        {
          "indexed": true,
          "internalType": "uint256",
          "name": "escrowID",
          "type": "uint256"
        },
        {
          "indexed": true,
          "internalType": "address",
          "name": "buyer",
          "type": "address"
        },
        {
          "indexed": true,
          "internalType": "address",
          "name": "receiver",
          "type": "address"
        },
        {
          "indexed": false,
          "internalType": "uint256",
          "name": "amount",
          "type": "uint256"
        },
        {
          "indexed": false,
          "internalType": "string",
          "name": "propertyId",
          "type": "string"
        }
      ],
      "name": "EscrowCreated",
      "type": "event"
    },
    {
      "anonymous": false,
      "inputs": [
        {
          "indexed": true,
          "internalType": "uint256",
          "name": "escrowID",
          "type": "uint256"
        },
        {
          "indexed": true,
          "internalType": "address",
          "name": "winner",
          "type": "address"
        },
        {
          "indexed": false,
          "internalType": "uint256",
          "name": "amount",
          "type": "uint256"
        }
      ],
      "name": "EscrowResolved",
      "type": "event"
    },
    {
      "anonymous": false,
      "inputs": [
        {
          "indexed": true,
          "internalType": "address",
          "name": "previousOwner",
          "type": "address"
        },
        {
          "indexed": true,
          "internalType": "address",
          "name": "newOwner",
          "type": "address"
        }
      ],
      "name": "OwnershipTransferred",
      "type": "event"
    },
    {
      "anonymous": false,
      "inputs": [
        {
          "indexed": true,
          "internalType": "uint256",
          "name": "escrowID",
          "type": "uint256"
        },
        {
          "indexed": true,
          "internalType": "address",
          "name": "payer",
          "type": "address"
        },
        {
          "indexed": false,
          "internalType": "uint256",
          "name": "amount",
          "type": "uint256"
        }
      ],
      "name": "Payment",
      "type": "event"
    },
    {
      "anonymous": false,
      "inputs": [
        {
          "indexed": true,
          "internalType": "uint256",
          "name": "escrowID",
          "type": "uint256"
        },
        {
          "indexed": true,
          "internalType": "uint256",
          "name": "disputeID",
          "type": "uint256"
        },
        {
          "indexed": false,
          "internalType": "uint256",
          "name": "ruling",
          "type": "uint256"
        }
      ],
      "name": "Ruling",
      "type": "event"
    },
    {
      "inputs": [],
      "name": "RULING_OPTIONS",
      "outputs": [
        {
          "internalType": "uint256",
          "name": "",
          "type": "uint256"
        }
      ],
      "stateMutability": "view",
      "type": "function"
    },
    {
      "inputs": [],
      "name": "arbitrator",
      "outputs": [
        {
          "internalType": "contract IArbitrator",
          "name": "",
          "type": "address"
        }
      ],
      "stateMutability": "view",
      "type": "function"
    },
    {
      "inputs": [],
      "name": "arbitratorExtraData",
      "outputs": [
        {
          "internalType": "bytes",
          "name": "",
          "type": "bytes"
        }
      ],
      "stateMutability": "view",
      "type": "function"
    },
    {
      "inputs": [
        {
          "internalType": "uint256",
          "name": "_escrowID",
          "type": "uint256"
        }
      ],
      "name": "createDispute",
      "outputs": [],
      "stateMutability": "payable",
      "type": "function"
    },
    {
      "inputs": [
        {
          "internalType": "address payable",
          "name": "_receiver",
          "type": "address"
        },
        {
          "internalType": "uint256",
          "name": "_timeout",
          "type": "uint256"
        },
        {
          "internalType": "string",
          "name": "_metaEvidence",
          "type": "string"
        },
        {
          "internalType": "string",
          "name": "_propertyId",
          "type": "string"
        },
        {
          "internalType": "string",
          "name": "_propertyTitle",
          "type": "string"
        }
      ],
      "name": "createEscrow",
      "outputs": [
        {
          "internalType": "uint256",
          "name": "escrowID",
          "type": "uint256"
        }
      ],
      "stateMutability": "payable",
      "type": "function"
    },
    {
      "inputs": [
        {
          "internalType": "uint256",
          "name": "",
          "type": "uint256"
        }
      ],
      "name": "disputeIDToEscrowID",
      "outputs": [
        {
          "internalType": "uint256",
          "name": "",
          "type": "uint256"
        }
      ],
      "stateMutability": "view",
      "type": "function"
    },
    {
      "inputs": [
        {
          "internalType": "uint256",
          "name": "",
          "type": "uint256"
        }
      ],
      "name": "escrows",
      "outputs": [
        {
          "internalType": "uint256",
          "name": "id",
          "type": "uint256"
        },
        {
          "internalType": "address payable",
          "name": "buyer",
          "type": "address"
        },
        {
          "internalType": "address payable",
          "name": "receiver",
          "type": "address"
        },
        {
          "internalType": "uint256",
          "name": "amount",
          "type": "uint256"
        },
        {
          "internalType": "uint256",
          "name": "timeout",
          "type": "uint256"
        },
        {
          "internalType": "enum DomeraEscrow.EscrowStatus",
          "name": "status",
          "type": "uint8"
        },
        {
          "internalType": "uint256",
          "name": "disputeID",
          "type": "uint256"
        },
        {
          "internalType": "string",
          "name": "metaEvidence",
          "type": "string"
        },
        {
          "internalType": "string",
          "name": "propertyId",
          "type": "string"
        },
        {
          "internalType": "string",
          "name": "propertyTitle",
          "type": "string"
        },
        {
          "internalType": "bool",
          "name": "buyerFeeRequired",
          "type": "bool"
        },
        {
          "internalType": "uint256",
          "name": "createdAt",
          "type": "uint256"
        }
      ],
      "stateMutability": "view",
      "type": "function"
    },
    {
      "inputs": [],
      "name": "getCurrentEscrowId",
      "outputs": [
        {
          "internalType": "uint256",
          "name": "",
          "type": "uint256"
        }
      ],
      "stateMutability": "view",
      "type": "function"
    },
    {
      "inputs": [
        {
          "internalType": "uint256",
          "name": "_escrowID",
          "type": "uint256"
        }
      ],
      "name": "getEscrow",
      "outputs": [
        {
          "internalType": "address",
          "name": "buyer",
          "type": "address"
        },
        {
          "internalType": "address",
          "name": "receiver",
          "type": "address"
        },
        {
          "internalType": "uint256",
          "name": "amount",
          "type": "uint256"
        },
        {
          "internalType": "uint256",
          "name": "timeout",
          "type": "uint256"
        },
        {
          "internalType": "enum DomeraEscrow.EscrowStatus",
          "name": "status",
          "type": "uint8"
        },
        {
          "internalType": "string",
          "name": "propertyId",
          "type": "string"
        },
        {
          "internalType": "string",
          "name": "propertyTitle",
          "type": "string"
        }
      ],
      "stateMutability": "view",
      "type": "function"
    },
    {
      "inputs": [],
      "name": "owner",
      "outputs": [
        {
          "internalType": "address",
          "name": "",
          "type": "address"
        }
      ],
      "stateMutability": "view",
      "type": "function"
    },
    {
      "inputs": [
        {
          "internalType": "uint256",
          "name": "_escrowID",
          "type": "uint256"
        }
      ],
      "name": "reclaimFunds",
      "outputs": [],
      "stateMutability": "nonpayable",
      "type": "function"
    },
    {
      "inputs": [
        {
          "internalType": "uint256",
          "name": "_escrowID",
          "type": "uint256"
        }
      ],
      "name": "releaseFunds",
      "outputs": [],
      "stateMutability": "nonpayable",
      "type": "function"
    },
    {
      "inputs": [],
      "name": "renounceOwnership",
      "outputs": [],
      "stateMutability": "nonpayable",
      "type": "function"
    },
    {
      "inputs": [
        {
          "internalType": "uint256",
          "name": "_disputeID",
          "type": "uint256"
        },
        {
          "internalType": "uint256",
          "name": "_ruling",
          "type": "uint256"
        }
      ],
      "name": "rule",
      "outputs": [],
      "stateMutability": "nonpayable",
      "type": "function"
    },
    {
      "inputs": [
        {
          "internalType": "address",
          "name": "newOwner",
          "type": "address"
        }
      ],
      "name": "transferOwnership",
      "outputs": [],
      "stateMutability": "nonpayable",
      "type": "function"
    },
    {
      "inputs": [
        {
          "internalType": "contract IArbitrator",
          "name": "_arbitrator",
          "type": "address"
        },
        {
          "internalType": "bytes",
          "name": "_arbitratorExtraData",
          "type": "bytes"
        }
      ],
      "name": "updateArbitrator",
      "outputs": [],
      "stateMutability": "nonpayable",
      "type": "function"
    }
  ],
  "bytecode": "0x60806040523480156200001157600080fd5b5060405162001db938038062001db9833981016040819052620000349162000106565b600160005533806200006057604051631e4fbdf760e01b81526000600482015260240160405180910390fd5b6200006b816200009e565b50600380546001600160a01b0319166001600160a01b03841617905560046200009582826200028b565b50505062000357565b600180546001600160a01b038381166001600160a01b0319831681179093556040519116919082907f8be0079c531659141344cd1fd0a4f28419497f9722a3daafe3b4186f6b6457e090600090a35050565b634e487b7160e01b600052604160045260246000fd5b600080604083850312156200011a57600080fd5b82516001600160a01b03811681146200013257600080fd5b602084810151919350906001600160401b03808211156200015257600080fd5b818601915086601f8301126200016757600080fd5b8151818111156200017c576200017c620000f0565b604051601f8201601f19908116603f01168101908382118183101715620001a757620001a7620000f0565b816040528281528986848701011115620001c057600080fd5b600093505b82841015620001e45784840186015181850187015292850192620001c5565b60008684830101528096505050505050509250929050565b600181811c908216806200021157607f821691505b6020821081036200023257634e487b7160e01b600052602260045260246000fd5b50919050565b601f8211156200028657600081815260208120601f850160051c81016020861015620002615750805b601f850160051c820191505b8181101562000282578281556001016200026d565b5050505b505050565b81516001600160401b03811115620002a757620002a7620000f0565b620002bf81620002b88454620001fc565b8462000238565b602080601f831160018114620002f75760008415620002de5750858301515b600019600386901b1c1916600185901b17855562000282565b600085815260208120601f198616915b82811015620003285788860151825594840194600190910190840162000307565b5085821015620003475787850151600019600388901b60f8161c191681555b5050505050600190811b01905550565b611a5280620003676000396000f3fe6080604052600436106100f35760003560e01c80636cc6cde11161008a578063a818677811610059578063a8186778146102b1578063d0f08fbe146102d1578063f2fde38b146102e6578063f9f161a81461030657600080fd5b80636cc6cde114610213578063715018a61461024b5780637d19e596146102605780638da5cb5b1461029357600080fd5b80634d68282f116100c65780634d68282f14610190578063558bc051146101b057806361f9082f146101d1578063626c47e8146101fe57600080fd5b8063012f52ee146100f85780630c7ac7b614610139578063311a6c561461015b5780634ac8a5291461017d575b600080fd5b34801561010457600080fd5b50610118610113366004611386565b610326565b6040516101309c9b9a9998979695949392919061141d565b60405180910390f35b34801561014557600080fd5b5061014e610532565b60405161013091906114b7565b34801561016757600080fd5b5061017b6101763660046114d1565b6105c0565b005b61017b61018b366004611386565b6107f5565b34801561019c57600080fd5b5061017b6101ab366004611386565b610aad565b6101c36101be3660046115b4565b610c38565b604051908152602001610130565b3480156101dd57600080fd5b506101c36101ec366004611386565b60066020526000908152604090205481565b34801561020a57600080fd5b506101c3600381565b34801561021f57600080fd5b50600354610233906001600160a01b031681565b6040516001600160a01b039091168152602001610130565b34801561025757600080fd5b5061017b610f29565b34801561026c57600080fd5b5061028061027b366004611386565b610f3d565b6040516101309796959493929190611659565b34801561029f57600080fd5b506001546001600160a01b0316610233565b3480156102bd57600080fd5b5061017b6102cc3660046116be565b6110cb565b3480156102dd57600080fd5b506002546101c3565b3480156102f257600080fd5b5061017b610301366004611722565b6110ff565b34801561031257600080fd5b5061017b610321366004611386565b61113a565b60056020819052600091825260409091208054600182015460028301546003840154600485015495850154600686015460078701805496986001600160a01b03968716989690951696939560ff909316939192916103839061173f565b80601f01602080910402602001604051908101604052809291908181526020018280546103af9061173f565b80156103fc5780601f106103d1576101008083540402835291602001916103fc565b820191906000526020600020905b8154815290600101906020018083116103df57829003601f168201915b5050505050908060080180546104119061173f565b80601f016020809104026020016040519081016040528092919081815260200182805461043d9061173f565b801561048a5780601f1061045f5761010080835404028352916020019161048a565b820191906000526020600020905b81548152906001019060200180831161046d57829003601f168201915b50505050509080600901805461049f9061173f565b80601f01602080910402602001604051908101604052809291908181526020018280546104cb9061173f565b80156105185780601f106104ed57610100808354040283529160200191610518565b820191906000526020600020905b8154815290600101906020018083116104fb57829003601f168201915b50505050600a830154600b90930154919260ff169190508c565b6004805461053f9061173f565b80601f016020809104026020016040519081016040528092919081815260200182805461056b9061173f565b80156105b85780601f1061058d576101008083540402835291602001916105b8565b820191906000526020600020905b81548152906001019060200180831161059b57829003601f168201915b505050505081565b6003546001600160a01b0316331461061f5760405162461bcd60e51b815260206004820152601860248201527f4f6e6c792061726269747261746f722063616e2072756c65000000000000000060448201526064015b60405180910390fd5b60008281526006602090815260408083205480845260059092529091206002600582015460ff1660038111156106575761065761139f565b1461069a5760405162461bcd60e51b8152602060048201526013602482015272111a5cdc1d5d19481b9bdd0818dc99585d1959606a1b6044820152606401610616565b60058101805460ff19166003179055600019830161073157600281015460038201546040516001600160a01b039092169181156108fc0291906000818181858888f193505050501580156106f2573d6000803e3d6000fd5b50600281015460038201546040519081526001600160a01b039091169083906000805160206119fd8339815191529060200160405180910390a36107b4565b600283036107b457600181015460038201546040516001600160a01b039092169181156108fc0291906000818181858888f19350505050158015610779573d6000803e3d6000fd5b50600181015460038201546040519081526001600160a01b039091169083906000805160206119fd8339815191529060200160405180910390a35b83827f2772fcb186e0dda6d66bbe9c2273363121263bd31557d4abf51d4b96e5ba2445856040516107e791815260200190565b60405180910390a350505050565b6107fd6112dd565b60008181526005602052604090206001600582015460ff1660038111156108265761082661139f565b146108435760405162461bcd60e51b815260040161061690611779565b60018101546001600160a01b031633148061086a575060028101546001600160a01b031633145b6108c85760405162461bcd60e51b815260206004820152602960248201527f4f6e6c79206275796572206f722072656365697665722063616e20637265617460448201526865206469737075746560b81b6064820152608401610616565b60035460405163f7434ea960e01b81526000916001600160a01b03169063f7434ea9906108f990600490810161182d565b602060405180830381865afa158015610916573d6000803e3d6000fd5b505050506040513d601f19601f8201168201806040525081019061093a9190611840565b90508034101561098c5760405162461bcd60e51b815260206004820152601c60248201527f496e73756666696369656e74206172626974726174696f6e20666565000000006044820152606401610616565b6003805460405163c13517e160e01b81526000926001600160a01b039092169163c13517e19185916109c2916004908101611859565b60206040518083038185885af11580156109e0573d6000803e3d6000fd5b50505050506040513d601f19601f82011682018060405250810190610a059190611840565b600684810182905560058501805460ff19166002179055600082815260209190915260409020859055905034821015610a7057336108fc610a468434611890565b6040518115909202916000818181858888f19350505050158015610a6e573d6000803e3d6000fd5b505b604051819085907ffa71779ecc1dd1ef48196a5af1776f8a748036653ce2b5b310ab5e31b61ca32b90600090a3505050610aaa6001600055565b50565b610ab56112dd565b60008181526005602052604090206001600582015460ff166003811115610ade57610ade61139f565b14610afb5760405162461bcd60e51b815260040161061690611779565b60028101546001600160a01b03163314610b575760405162461bcd60e51b815260206004820152601f60248201527f4f6e6c792072656365697665722063616e2072656c656173652066756e6473006044820152606401610616565b8060040154421015610ba15760405162461bcd60e51b8152602060048201526013602482015272151a5b595bdd5d081b9bdd081c995858da1959606a1b6044820152606401610616565b60058101805460ff191660039081179091556002820154908201546040516001600160a01b03909216916108fc82150291906000818181858888f19350505050158015610bf2573d6000803e3d6000fd5b50600281015460038201546040519081526001600160a01b039091169083906000805160206119fd833981519152906020015b60405180910390a350610aaa6001600055565b6000803411610c895760405162461bcd60e51b815260206004820152601d60248201527f416d6f756e74206d7573742062652067726561746572207468616e20300000006044820152606401610616565b6001600160a01b038616610cdf5760405162461bcd60e51b815260206004820152601860248201527f496e76616c6964207265636569766572206164647265737300000000000000006044820152606401610616565b428511610d2e5760405162461bcd60e51b815260206004820152601d60248201527f54696d656f7574206d75737420626520696e20746865206675747572650000006044820152606401610616565b50600280549081906000610d41836118a9565b909155505060408051610180810182528281523360208083019182526001600160a01b038a81168486019081523460608601908152608086018c8152600160a08801818152600060c08a0181905260e08a018f90526101008a018e90526101208a018d90526101408a01819052426101608b01528b81526005978890529990992088518155965187820180549187166001600160a01b0319928316179055935160028801805491909616941693909317909355516003808601919091559151600485015594519183018054949593949293909260ff1916918490811115610e2a57610e2a61139f565b021790555060c0820151600682015560e08201516007820190610e4d9082611910565b506101008201516008820190610e639082611910565b506101208201516009820190610e799082611910565b50610140820151600a8201805460ff191691151591909117905561016090910151600b909101556040516001600160a01b03871690339083907f079316c6cb044ce8147d3a031eb8c26e06754da3a9393a80d7619a0e1269675f90610ee190349089906119d0565b60405180910390a4604051348152339082907fdef0dd1961901757e759c1e3e1ced766d61d989aa5030414848dae6bac75cbdd9060200160405180910390a395945050505050565b610f31611307565b610f3b6000611334565b565b600081815260056020819052604082206001810154600282015460038301546004840154948401546008850180548897889788978897606097889793966001600160a01b039384169692909316949093909260ff9091169160098801908290610fa59061173f565b80601f0160208091040260200160405190810160405280929190818152602001828054610fd19061173f565b801561101e5780601f10610ff35761010080835404028352916020019161101e565b820191906000526020600020905b81548152906001019060200180831161100157829003601f168201915b505050505091508080546110319061173f565b80601f016020809104026020016040519081016040528092919081815260200182805461105d9061173f565b80156110aa5780601f1061107f576101008083540402835291602001916110aa565b820191906000526020600020905b81548152906001019060200180831161108d57829003601f168201915b50505050509050975097509750975097509750975050919395979092949650565b6110d3611307565b600380546001600160a01b0319166001600160a01b03841617905560046110fa8282611910565b505050565b611107611307565b6001600160a01b03811661113157604051631e4fbdf760e01b815260006004820152602401610616565b610aaa81611334565b6111426112dd565b60008181526005602052604090206001600582015460ff16600381111561116b5761116b61139f565b146111885760405162461bcd60e51b815260040161061690611779565b60018101546001600160a01b031633146111e45760405162461bcd60e51b815260206004820152601c60248201527f4f6e6c792062757965722063616e207265636c61696d2066756e6473000000006044820152606401610616565b60048101546111f69062093a806119e9565b4210156112555760405162461bcd60e51b815260206004820152602760248201527f4d757374207761697420372064617973206166746572207265636569766572206044820152661d1a5b595bdd5d60ca1b6064820152608401610616565b60058101805460ff191660039081179091556001820154908201546040516001600160a01b03909216916108fc82150291906000818181858888f193505050501580156112a6573d6000803e3d6000fd5b50600181015460038201546040519081526001600160a01b039091169083906000805160206119fd83398151915290602001610c25565b60026000540361130057604051633ee5aeb560e01b815260040160405180910390fd5b6002600055565b6001546001600160a01b03163314610f3b5760405163118cdaa760e01b8152336004820152602401610616565b600180546001600160a01b038381166001600160a01b0319831681179093556040519116919082907f8be0079c531659141344cd1fd0a4f28419497f9722a3daafe3b4186f6b6457e090600090a35050565b60006020828403121561139857600080fd5b5035919050565b634e487b7160e01b600052602160045260246000fd5b600481106113d357634e487b7160e01b600052602160045260246000fd5b9052565b6000815180845260005b818110156113fd576020818501810151868301820152016113e1565b506000602082860101526020601f19601f83011685010191505092915050565b8c81526001600160a01b038c811660208301528b166040820152606081018a905260808101899052600061018061145760a084018b6113b5565b8860c08401528060e084015261146f818401896113d7565b905082810361010084015261148481886113d7565b905082810361012084015261149981876113d7565b941515610140840152505061016001529a9950505050505050505050565b6020815260006114ca60208301846113d7565b9392505050565b600080604083850312156114e457600080fd5b50508035926020909101359150565b6001600160a01b0381168114610aaa57600080fd5b634e487b7160e01b600052604160045260246000fd5b600067ffffffffffffffff8084111561153957611539611508565b604051601f8501601f19908116603f0116810190828211818310171561156157611561611508565b8160405280935085815286868601111561157a57600080fd5b858560208301376000602087830101525050509392505050565b600082601f8301126115a557600080fd5b6114ca8383356020850161151e565b600080600080600060a086880312156115cc57600080fd5b85356115d7816114f3565b945060208601359350604086013567ffffffffffffffff808211156115fb57600080fd5b61160789838a01611594565b9450606088013591508082111561161d57600080fd5b61162989838a01611594565b9350608088013591508082111561163f57600080fd5b5061164c88828901611594565b9150509295509295909350565b6001600160a01b038881168252871660208201526040810186905260608101859052600061168a60808301866113b5565b60e060a083015261169e60e08301856113d7565b82810360c08401526116b081856113d7565b9a9950505050505050505050565b600080604083850312156116d157600080fd5b82356116dc816114f3565b9150602083013567ffffffffffffffff8111156116f857600080fd5b8301601f8101851361170957600080fd5b6117188582356020840161151e565b9150509250929050565b60006020828403121561173457600080fd5b81356114ca816114f3565b600181811c9082168061175357607f821691505b60208210810361177357634e487b7160e01b600052602260045260246000fd5b50919050565b60208082526019908201527f457363726f77206e6f7420696e20706169642073746174757300000000000000604082015260600190565b600081546117bd8161173f565b8085526020600183811680156117da57600181146117f457611822565b60ff1985168884015283151560051b880183019550611822565b866000528260002060005b8581101561181a5781548a82018601529083019084016117ff565b890184019650505b505050505092915050565b6020815260006114ca60208301846117b0565b60006020828403121561185257600080fd5b5051919050565b82815260406020820152600061187260408301846117b0565b949350505050565b634e487b7160e01b600052601160045260246000fd5b818103818111156118a3576118a361187a565b92915050565b6000600182016118bb576118bb61187a565b5060010190565b601f8211156110fa57600081815260208120601f850160051c810160208610156118e95750805b601f850160051c820191505b81811015611908578281556001016118f5565b505050505050565b815167ffffffffffffffff81111561192a5761192a611508565b61193e81611938845461173f565b846118c2565b602080601f831160018114611973576000841561195b5750858301515b600019600386901b1c1916600185901b178555611908565b600085815260208120601f198616915b828110156119a257888601518255948401946001909101908401611983565b50858210156119c05787850151600019600388901b60f8161c191681555b5050505050600190811b01905550565b82815260406020820152600061187260408301846113d7565b808201808211156118a3576118a361187a56fef2986d88fbef6d847cabab14d6c2deed600a28c1330f7a5c25465898dc891d32a26469706673582212209850d0da2bcdf1d149a9c1218f10d90a65130f5cb8d377fd8b294fcdc854581064736f6c63430008140033",
  "linkReferences": {},
  "deployedLinkReferences": {}
}